{
  "_format": "hh-sol-artifact-1",
  "contractName": "Waveat",
  "sourceName": "contracts/wave.sol",
  "abi": [
    {
      "inputs": [],
      "stateMutability": "payable",
      "type": "constructor"
    },
    {
      "anonymous": false,
      "inputs": [
        {
          "indexed": true,
          "internalType": "address",
          "name": "from",
          "type": "address"
        },
        {
          "indexed": false,
          "internalType": "uint256",
          "name": "timestamp",
          "type": "uint256"
        },
        {
          "indexed": false,
          "internalType": "string",
          "name": "message",
          "type": "string"
        },
        {
          "indexed": false,
          "internalType": "uint256",
          "name": "wc",
          "type": "uint256"
        }
      ],
      "name": "NewWave",
      "type": "event"
    },
    {
      "anonymous": false,
      "inputs": [
        {
          "indexed": false,
          "internalType": "address",
          "name": "loser",
          "type": "address"
        }
      ],
      "name": "lost",
      "type": "event"
    },
    {
      "anonymous": false,
      "inputs": [
        {
          "indexed": false,
          "internalType": "address",
          "name": "winner",
          "type": "address"
        },
        {
          "indexed": false,
          "internalType": "uint256",
          "name": "prizeAmount",
          "type": "uint256"
        }
      ],
      "name": "won",
      "type": "event"
    },
    {
      "inputs": [],
      "name": "getAllWaves",
      "outputs": [
        {
          "components": [
            {
              "internalType": "address",
              "name": "waver",
              "type": "address"
            },
            {
              "internalType": "string",
              "name": "message",
              "type": "string"
            },
            {
              "internalType": "uint256",
              "name": "timestamp",
              "type": "uint256"
            },
            {
              "internalType": "uint256",
              "name": "wcn",
              "type": "uint256"
            }
          ],
          "internalType": "struct Waveat.Wave[]",
          "name": "",
          "type": "tuple[]"
        }
      ],
      "stateMutability": "view",
      "type": "function"
    },
    {
      "inputs": [],
      "name": "getTotalWaves",
      "outputs": [
        {
          "internalType": "uint256",
          "name": "",
          "type": "uint256"
        }
      ],
      "stateMutability": "view",
      "type": "function"
    },
    {
      "inputs": [
        {
          "internalType": "address",
          "name": "",
          "type": "address"
        }
      ],
      "name": "lastWavedAt",
      "outputs": [
        {
          "internalType": "uint256",
          "name": "",
          "type": "uint256"
        }
      ],
      "stateMutability": "view",
      "type": "function"
    },
    {
      "inputs": [],
      "name": "numberOfWavers",
      "outputs": [
        {
          "internalType": "uint256",
          "name": "",
          "type": "uint256"
        }
      ],
      "stateMutability": "view",
      "type": "function"
    },
    {
      "inputs": [
        {
          "internalType": "string",
          "name": "_message",
          "type": "string"
        }
      ],
      "name": "wave",
      "outputs": [],
      "stateMutability": "nonpayable",
      "type": "function"
    },
    {
      "inputs": [
        {
          "internalType": "address",
          "name": "",
          "type": "address"
        }
      ],
      "name": "waveCount",
      "outputs": [
        {
          "internalType": "uint256",
          "name": "",
          "type": "uint256"
        }
      ],
      "stateMutability": "view",
      "type": "function"
    },
    {
      "inputs": [
        {
          "internalType": "uint256",
          "name": "",
          "type": "uint256"
        }
      ],
      "name": "wavers",
      "outputs": [
        {
          "internalType": "address",
          "name": "",
          "type": "address"
        }
      ],
      "stateMutability": "view",
      "type": "function"
    }
  ],
  "bytecode": "0x60806040526200004f6040518060400160405280601981526020017f57652068617665206265656e20636f6e737472756374656421000000000000008152506200007760201b62000f051760201c565b606444426200005f91906200017c565b6200006b9190620001e6565b600181905550620002dc565b62000117816040516024016200008e9190620002b8565b6040516020818303038152906040527f41304fac000000000000000000000000000000000000000000000000000000007bffffffffffffffffffffffffffffffffffffffffffffffffffffffff19166020820180517bffffffffffffffffffffffffffffffffffffffffffffffffffffffff83818316178352505050506200011a60201b60201c565b50565b60008151905060006a636f6e736f6c652e6c6f679050602083016000808483855afa5050505050565b6000819050919050565b7f4e487b7100000000000000000000000000000000000000000000000000000000600052601160045260246000fd5b6000620001898262000143565b9150620001968362000143565b9250828201905080821115620001b157620001b06200014d565b5b92915050565b7f4e487b7100000000000000000000000000000000000000000000000000000000600052601260045260246000fd5b6000620001f38262000143565b9150620002008362000143565b925082620002135762000212620001b7565b5b828206905092915050565b600081519050919050565b600082825260208201905092915050565b60005b838110156200025a5780820151818401526020810190506200023d565b60008484015250505050565b6000601f19601f8301169050919050565b600062000284826200021e565b62000290818562000229565b9350620002a28185602086016200023a565b620002ad8162000266565b840191505092915050565b60006020820190508181036000830152620002d4818462000277565b905092915050565b611eab80620002ec6000396000f3fe608060405234801561001057600080fd5b506004361061007d5760003560e01c8063a42a46631161005b578063a42a4663146100ec578063acf269911461011c578063ae020f4f1461013a578063bd43a9081461016a5761007d565b80633ca736bd14610082578063449d46c0146100b25780639a2cdc08146100ce575b600080fd5b61009c6004803603810190610097919061128a565b610188565b6040516100a991906112f8565b60405180910390f35b6100cc60048036038101906100c79190611459565b6101c7565b005b6100d6610cde565b6040516100e391906114b1565b60405180910390f35b610106600480360381019061010191906114f8565b610d29565b60405161011391906114b1565b60405180910390f35b610124610d41565b60405161013191906114b1565b60405180910390f35b610154600480360381019061014f91906114f8565b610d92565b60405161016191906114b1565b60405180910390f35b610172610daa565b60405161017f91906116e7565b60405180910390f35b6004818154811061019857600080fd5b906000526020600020016000915054906101000a900473ffffffffffffffffffffffffffffffffffffffff1681565b42610708600660003373ffffffffffffffffffffffffffffffffffffffff1673ffffffffffffffffffffffffffffffffffffffff168152602001908152602001600020546102159190611738565b10610255576040517f08c379a000000000000000000000000000000000000000000000000000000000815260040161024c906117c9565b60405180910390fd5b42600660003373ffffffffffffffffffffffffffffffffffffffff1673ffffffffffffffffffffffffffffffffffffffff1681526020019081526020016000208190555060016000808282546102ab9190611738565b92505081905550600360003373ffffffffffffffffffffffffffffffffffffffff1673ffffffffffffffffffffffffffffffffffffffff16815260200190815260200160002060009054906101000a900460ff16610815576001600360003373ffffffffffffffffffffffffffffffffffffffff1673ffffffffffffffffffffffffffffffffffffffff16815260200190815260200160002060006101000a81548160ff0219169083151502179055506001600260003373ffffffffffffffffffffffffffffffffffffffff1673ffffffffffffffffffffffffffffffffffffffff168152602001908152602001600020819055506004339080600181540180825580915050600190039060005260206000200160009091909190916101000a81548173ffffffffffffffffffffffffffffffffffffffff021916908373ffffffffffffffffffffffffffffffffffffffff1602179055506104436040518060400160405280601d81526020017f257320686173207761766564212077697468206d6573736167652025730000008152503383610f9e565b600560405180608001604052803373ffffffffffffffffffffffffffffffffffffffff168152602001838152602001428152602001600260003373ffffffffffffffffffffffffffffffffffffffff1673ffffffffffffffffffffffffffffffffffffffff16815260200190815260200160002054815250908060018154018082558091505060019003906000526020600020906004020160009091909190915060008201518160000160006101000a81548173ffffffffffffffffffffffffffffffffffffffff021916908373ffffffffffffffffffffffffffffffffffffffff160217905550602082015181600101908161054091906119f5565b5060408201518160020155606082015181600301555050606460015442446105689190611738565b6105729190611738565b61057c9190611af6565b6001819055506105c36040518060400160405280601681526020017f52616e646f6d20232067656e6572617465643a2025640000000000000000000081525060015461103d565b603260015410156107475761060d6040518060400160405280600781526020017f257320776f6e2100000000000000000000000000000000000000000000000000815250336110d9565b6000655af3107a400090504781111561065b576040517f08c379a000000000000000000000000000000000000000000000000000000000815260040161065290611b99565b60405180910390fd5b60003373ffffffffffffffffffffffffffffffffffffffff168260405161068190611bea565b60006040518083038185875af1925050503d80600081146106be576040519150601f19603f3d011682016040523d82523d6000602084013e6106c3565b606091505b5050905080610707576040517f08c379a00000000000000000000000000000000000000000000000000000000081526004016106fe90611c71565b60405180910390fd5b7ff5f0b37c2edb79c0e33512d3cf6c2b3356fa1dea8bb0c9f070dec68cffacc48a3383604051610738929190611c91565b60405180910390a1505061077f565b7f70405a47da5955ebc05ad2d4e7387f907ff1110a0b156f6a05970c3b28bc969e3360405161077691906112f8565b60405180910390a15b3373ffffffffffffffffffffffffffffffffffffffff167f3e113f502ff7c90598a6182f87f699985e9c373d089ba56a11d88a26891c5c8b4283600260003373ffffffffffffffffffffffffffffffffffffffff1673ffffffffffffffffffffffffffffffffffffffff1681526020019081526020016000205460405161080893929190611cf3565b60405180910390a2610cdb565b6001600260003373ffffffffffffffffffffffffffffffffffffffff1673ffffffffffffffffffffffffffffffffffffffff16815260200190815260200160002060008282546108659190611738565b925050819055506108cf6040518060600160405280602a8152602001611e4c602a913933600260003373ffffffffffffffffffffffffffffffffffffffff1673ffffffffffffffffffffffffffffffffffffffff1681526020019081526020016000205484611175565b600560405180608001604052803373ffffffffffffffffffffffffffffffffffffffff168152602001838152602001428152602001600260003373ffffffffffffffffffffffffffffffffffffffff1673ffffffffffffffffffffffffffffffffffffffff16815260200190815260200160002054815250908060018154018082558091505060019003906000526020600020906004020160009091909190915060008201518160000160006101000a81548173ffffffffffffffffffffffffffffffffffffffff021916908373ffffffffffffffffffffffffffffffffffffffff16021790555060208201518160010190816109cc91906119f5565b5060408201518160020155606082015181600301555050606460015442446109f49190611738565b6109fe9190611738565b610a089190611af6565b600181905550610a4f6040518060400160405280601681526020017f52616e646f6d20232067656e6572617465643a2025640000000000000000000081525060015461103d565b60326001541015610bd357610a996040518060400160405280600781526020017f257320776f6e2100000000000000000000000000000000000000000000000000815250336110d9565b6000655af3107a4000905047811115610ae7576040517f08c379a0000000000000000000000000000000000000000000000000000000008152600401610ade90611b99565b60405180910390fd5b60003373ffffffffffffffffffffffffffffffffffffffff1682604051610b0d90611bea565b60006040518083038185875af1925050503d8060008114610b4a576040519150601f19603f3d011682016040523d82523d6000602084013e610b4f565b606091505b5050905080610b93576040517f08c379a0000000000000000000000000000000000000000000000000000000008152600401610b8a90611c71565b60405180910390fd5b7ff5f0b37c2edb79c0e33512d3cf6c2b3356fa1dea8bb0c9f070dec68cffacc48a3383604051610bc4929190611c91565b60405180910390a15050610c49565b7f70405a47da5955ebc05ad2d4e7387f907ff1110a0b156f6a05970c3b28bc969e33604051610c0291906112f8565b60405180910390a1610c486040518060400160405280600e81526020017f547279206e6578742074696d6521000000000000000000000000000000000000815250610f05565b5b3373ffffffffffffffffffffffffffffffffffffffff167f3e113f502ff7c90598a6182f87f699985e9c373d089ba56a11d88a26891c5c8b4283600260003373ffffffffffffffffffffffffffffffffffffffff1673ffffffffffffffffffffffffffffffffffffffff16815260200190815260200160002054604051610cd293929190611cf3565b60405180910390a25b50565b6000610d216040518060400160405280601781526020017f5765206861766520256420746f74616c2077617665732100000000000000000081525060005461103d565b600054905090565b60066020528060005260406000206000915090505481565b6000610d876040518060400160405280601181526020017f576520686176652025642077617665727300000000000000000000000000000081525060048054905061103d565b600480549050905090565b60026020528060005260406000206000915090505481565b60606005805480602002602001604051908101604052809291908181526020016000905b82821015610efc57838290600052602060002090600402016040518060800160405290816000820160009054906101000a900473ffffffffffffffffffffffffffffffffffffffff1673ffffffffffffffffffffffffffffffffffffffff1673ffffffffffffffffffffffffffffffffffffffff168152602001600182018054610e5790611818565b80601f0160208091040260200160405190810160405280929190818152602001828054610e8390611818565b8015610ed05780601f10610ea557610100808354040283529160200191610ed0565b820191906000526020600020905b815481529060010190602001808311610eb357829003601f168201915b505050505081526020016002820154815260200160038201548152505081526020019060010190610dce565b50505050905090565b610f9b81604051602401610f199190611d31565b6040516020818303038152906040527f41304fac000000000000000000000000000000000000000000000000000000007bffffffffffffffffffffffffffffffffffffffffffffffffffffffff19166020820180517bffffffffffffffffffffffffffffffffffffffffffffffffffffffff8381831617835250505050611217565b50565b611038838383604051602401610fb693929190611d53565b6040516020818303038152906040527fe0e9ad4f000000000000000000000000000000000000000000000000000000007bffffffffffffffffffffffffffffffffffffffffffffffffffffffff19166020820180517bffffffffffffffffffffffffffffffffffffffffffffffffffffffff8381831617835250505050611217565b505050565b6110d58282604051602401611053929190611d98565b6040516020818303038152906040527fb60e72cc000000000000000000000000000000000000000000000000000000007bffffffffffffffffffffffffffffffffffffffffffffffffffffffff19166020820180517bffffffffffffffffffffffffffffffffffffffffffffffffffffffff8381831617835250505050611217565b5050565b61117182826040516024016110ef929190611dc8565b6040516020818303038152906040527f319af333000000000000000000000000000000000000000000000000000000007bffffffffffffffffffffffffffffffffffffffffffffffffffffffff19166020820180517bffffffffffffffffffffffffffffffffffffffffffffffffffffffff8381831617835250505050611217565b5050565b6112118484848460405160240161118f9493929190611df8565b6040516020818303038152906040527f5a477632000000000000000000000000000000000000000000000000000000007bffffffffffffffffffffffffffffffffffffffffffffffffffffffff19166020820180517bffffffffffffffffffffffffffffffffffffffffffffffffffffffff8381831617835250505050611217565b50505050565b60008151905060006a636f6e736f6c652e6c6f679050602083016000808483855afa5050505050565b6000604051905090565b600080fd5b600080fd5b6000819050919050565b61126781611254565b811461127257600080fd5b50565b6000813590506112848161125e565b92915050565b6000602082840312156112a05761129f61124a565b5b60006112ae84828501611275565b91505092915050565b600073ffffffffffffffffffffffffffffffffffffffff82169050919050565b60006112e2826112b7565b9050919050565b6112f2816112d7565b82525050565b600060208201905061130d60008301846112e9565b92915050565b600080fd5b600080fd5b6000601f19601f8301169050919050565b7f4e487b7100000000000000000000000000000000000000000000000000000000600052604160045260246000fd5b6113668261131d565b810181811067ffffffffffffffff821117156113855761138461132e565b5b80604052505050565b6000611398611240565b90506113a4828261135d565b919050565b600067ffffffffffffffff8211156113c4576113c361132e565b5b6113cd8261131d565b9050602081019050919050565b82818337600083830152505050565b60006113fc6113f7846113a9565b61138e565b90508281526020810184848401111561141857611417611318565b5b6114238482856113da565b509392505050565b600082601f8301126114405761143f611313565b5b81356114508482602086016113e9565b91505092915050565b60006020828403121561146f5761146e61124a565b5b600082013567ffffffffffffffff81111561148d5761148c61124f565b5b6114998482850161142b565b91505092915050565b6114ab81611254565b82525050565b60006020820190506114c660008301846114a2565b92915050565b6114d5816112d7565b81146114e057600080fd5b50565b6000813590506114f2816114cc565b92915050565b60006020828403121561150e5761150d61124a565b5b600061151c848285016114e3565b91505092915050565b600081519050919050565b600082825260208201905092915050565b6000819050602082019050919050565b61155a816112d7565b82525050565b600081519050919050565b600082825260208201905092915050565b60005b8381101561159a57808201518184015260208101905061157f565b60008484015250505050565b60006115b182611560565b6115bb818561156b565b93506115cb81856020860161157c565b6115d48161131d565b840191505092915050565b6115e881611254565b82525050565b60006080830160008301516116066000860182611551565b506020830151848203602086015261161e82826115a6565b915050604083015161163360408601826115df565b50606083015161164660608601826115df565b508091505092915050565b600061165d83836115ee565b905092915050565b6000602082019050919050565b600061167d82611525565b6116878185611530565b93508360208202850161169985611541565b8060005b858110156116d557848403895281516116b68582611651565b94506116c183611665565b925060208a0199505060018101905061169d565b50829750879550505050505092915050565b600060208201905081810360008301526117018184611672565b905092915050565b7f4e487b7100000000000000000000000000000000000000000000000000000000600052601160045260246000fd5b600061174382611254565b915061174e83611254565b925082820190508082111561176657611765611709565b5b92915050565b600082825260208201905092915050565b7f547279206166746572203330206d696e75746573000000000000000000000000600082015250565b60006117b360148361176c565b91506117be8261177d565b602082019050919050565b600060208201905081810360008301526117e2816117a6565b9050919050565b7f4e487b7100000000000000000000000000000000000000000000000000000000600052602260045260246000fd5b6000600282049050600182168061183057607f821691505b602082108103611843576118426117e9565b5b50919050565b60008190508160005260206000209050919050565b60006020601f8301049050919050565b600082821b905092915050565b6000600883026118ab7fffffffffffffffffffffffffffffffffffffffffffffffffffffffffffffffff8261186e565b6118b5868361186e565b95508019841693508086168417925050509392505050565b6000819050919050565b60006118f26118ed6118e884611254565b6118cd565b611254565b9050919050565b6000819050919050565b61190c836118d7565b611920611918826118f9565b84845461187b565b825550505050565b600090565b611935611928565b611940818484611903565b505050565b5b818110156119645761195960008261192d565b600181019050611946565b5050565b601f8211156119a95761197a81611849565b6119838461185e565b81016020851015611992578190505b6119a661199e8561185e565b830182611945565b50505b505050565b600082821c905092915050565b60006119cc600019846008026119ae565b1980831691505092915050565b60006119e583836119bb565b9150826002028217905092915050565b6119fe82611560565b67ffffffffffffffff811115611a1757611a1661132e565b5b611a218254611818565b611a2c828285611968565b600060209050601f831160018114611a5f5760008415611a4d578287015190505b611a5785826119d9565b865550611abf565b601f198416611a6d86611849565b60005b82811015611a9557848901518255600182019150602085019450602081019050611a70565b86831015611ab25784890151611aae601f8916826119bb565b8355505b6001600288020188555050505b505050505050565b7f4e487b7100000000000000000000000000000000000000000000000000000000600052601260045260246000fd5b6000611b0182611254565b9150611b0c83611254565b925082611b1c57611b1b611ac7565b5b828206905092915050565b7f547279696e6720746f207769746864726177206d6f7265206d6f6e657920746860008201527f616e2074686520636f6e7472616374206861732e000000000000000000000000602082015250565b6000611b8360348361176c565b9150611b8e82611b27565b604082019050919050565b60006020820190508181036000830152611bb281611b76565b9050919050565b600081905092915050565b50565b6000611bd4600083611bb9565b9150611bdf82611bc4565b600082019050919050565b6000611bf582611bc7565b9150819050919050565b7f4661696c656420746f207769746864726177206d6f6e65792066726f6d20636f60008201527f6e74726163742e00000000000000000000000000000000000000000000000000602082015250565b6000611c5b60278361176c565b9150611c6682611bff565b604082019050919050565b60006020820190508181036000830152611c8a81611c4e565b9050919050565b6000604082019050611ca660008301856112e9565b611cb360208301846114a2565b9392505050565b6000611cc582611560565b611ccf818561176c565b9350611cdf81856020860161157c565b611ce88161131d565b840191505092915050565b6000606082019050611d0860008301866114a2565b8181036020830152611d1a8185611cba565b9050611d2960408301846114a2565b949350505050565b60006020820190508181036000830152611d4b8184611cba565b905092915050565b60006060820190508181036000830152611d6d8186611cba565b9050611d7c60208301856112e9565b8181036040830152611d8e8184611cba565b9050949350505050565b60006040820190508181036000830152611db28185611cba565b9050611dc160208301846114a2565b9392505050565b60006040820190508181036000830152611de28185611cba565b9050611df160208301846112e9565b9392505050565b60006080820190508181036000830152611e128187611cba565b9050611e2160208301866112e9565b611e2e60408301856114a2565b8181036060830152611e408184611cba565b90509594505050505056fe2573206861732077617665642120666f722025642074696d652077697468206d6573736167653a202573a26469706673582212203b80855d21ce4b7fc7b4d1c8cb0e8cc68d6afeb84a90da68e777f2586f23409964736f6c63430008110033",
  "linkReferences": {},
  "deployedLinkReferences": {}
}